:0400000080312428FF
:100008007E14803120007F08F1000B1F1528210085
:10001800911E15282000911E15289731E42780315C
:100028001F280B1F1F282100111E1F282000111E2A
:100038001F288831162071082000FF007E10090053
:1000480080312628FA01FB01C83084000030850081
:1000580024309631B6268031203084000130850066
:1000680030309631B6267E10200097316C2F28301C
:100078002000AE002E08B50020002708AF00260893
:10008800AE00A60A0319A70A2E0884002F088500C7
:100098000008B0003008BF003F08031908002530E9
:1000A8003F0603195C283F089631B1268031402865
:1000B8002000BC01BD01BA01BB016728BA15013097
:1000C800A6070030A73D26088400270885000008F9
:1000D8002D3A03196228702826088400270885000D
:1000E80000089631EE268031031CAB282000BC01A5
:1000F800BD010A30F2000030F30020003D08F50091
:100108003C08F4009731C927803173082000BD00EE
:100118007208BC0026088400270885000008D03E25
:10012800AE00FF3003180030AF002E08BC072F08C0
:10013800BD3D0130A6070030A73D260884002708EA
:10014800850000089631EE26803103187D282000AE
:10015800260884002708850012002E3A031DDE2891
:100168003B170130A6070030A73DBE0126088400D2
:100178002708850000089631EE268031031C672980
:10018800200026088400270885000008AE000A30F1
:10019800AF002F08F2003E08973137278031200042
:1001A8002E07D03EB0003008BE000130A607003050
:1001B800A73DBA282000BE016729BA178829350843
:1001C80086008701403FB300413FB4000230AE00D3
:1001D8002E08B50733083404031DF6285A30B30037
:1001E8009030B400B601B7013308360784003408EC
:1001F800373D85001200031906290130B607003083
:10020800B73DF8283E0803191B293E08AE00AF0188
:10021800AE1BAF0337082F02031D142936082E0220
:1002280003181B293E08B600B701B61BB7033D08E3
:100238003702031D21293C083602031828293608ED
:10024800BC023708BD3B2A29BC01BD01BA1D3129B2
:100258004A2920309631B1268031FF302000BC0772
:10026800FF30BD3D3C0A031D2D293D0A03194A29CB
:100278002D29330884003408850000089631B126FA
:10028800803101302000B3070030B43D0130B602A0
:100298000030B73B360A031D3D29370A031D3D29A7
:1002A800BA195B29402820309631B1268031FF30B9
:1002B8002000BC07FF30BD3D3C0A031D57293D0AFD
:1002C80003194028572920002708AF002608AE0048
:1002D800A60A0319A70A2E0884002F08850000081B
:1002E800BF00003A0319102B643A031988290D3A04
:1002F80003198829193A0319E128033A0319E3284D
:100308000B3A0319E1284028BA1BA12935088600B1
:100318008701403FB800413FB9000230AE002E08C7
:10032800B507B91FAC290330BA040030BB04B809BB
:10033800B909B80A0319B90AAC2935088600870132
:10034800403FB800413FB9000230AE002E08B50763
:100358003E08031DFC2938083904031DFC29013017
:10036800AE002E08BE07FC29BF01BF0A05303F06B4
:100378000319052A3F08AE00AF01AE35AF0D0030B6
:100388002E07840090302F3D8500003FB000013FCC
:10039800B10031083902031DD32930083802031C83
:1003A800052A0130AE002E08BF07BA29BF01BF0ACF
:1003B80004303F060319052A3F08AE00AF01AE35E9
:1003C800AF0D0A302E07840090302F3D8500003F86
:1003D800B000013FB10031083902031DF52930088A
:1003E8003802031C052A0130AE002E08BF07DC299D
:1003F8003A088039003A0319B829803A0319DA29EA
:10040800052A3F08803AAE003E08803AAE0203183B
:10041800122A3E08AE002E08BF001E2A3E08803A67
:10042800AE003F08803AAE0203181E2A3F08AE000D
:100438002E08BE003C083D040319302A03303A0553
:10044800AE0000303B05AF002E082F040319302AF8
:10045800FF30BC07FF30BD3D3B1F512A3E08AE00B0
:10046800AF01AE1BAF032F08803AB0003D08803AB9
:100478003002031D412A3C082E0203184E2A200090
:100488003E08AE00AF01AE1BAF032E08BC022F081A
:10049800BD3B512A2000BC01BD013F08AE00AF01A1
:1004A800AE1BAF032F08803AB0003D08803A3002F7
:1004B800031D602A3C082E0203186D2A20003F08FD
:1004C800AE00AF01AE1BAF032E08BC022F08BD3B28
:1004D800702A2000BC01BD013C083D04031DBA1967
:1004E800822A20309631B1268031FF302000BC07A7
:1004F800FF30BD3D3C083D04031D752A03303A0515
:10050800AE0000303B05AF002E082F040319E22A85
:100518002D30DF2A0A302000A0000030A1003E085C
:10052800AE00AF01AE35AF0D00302E07840090301D
:100538002F3D8500003FF200013FF3003908F50028
:100548003808F4008A310D22803173082000A30096
:100558007208A2008831ED20803120002008303E4A
:10056800B0003008DD2A3E08AE00AF01AE35AF0D51
:100578000A302E07840090302F3D8500003FF2009E
:10058800013FF3003908F5003808F4008A310D22DC
:10059800803172080F392000B0003008B2003208EC
:1005A800493E840090300318013E85000008AE00E3
:1005B8002E08BF003F089631B1268031FF30200059
:1005C800AE002E08BE073E0A0319F52A20003A0895
:1005D8008039003A03198E2A803A0319B72ADE2A8D
:1005E800DE2ABA1D40283D08803AAE0080302E022F
:1005F800031D002B01303C02031C4028203096319B
:10060800B1268031FF302000BC07FF30BD3D3C08DB
:100618003D0403194028022B08002100B7012B08CC
:10062800F2002C08F3002D08F4000030F50000302B
:10063800F6000030F7008A31B32283310318372BD4
:1006480021002B08F2002C08F3002D08F400963145
:10065800BC26833172082100AB007308AC00740813
:10066800AD00B701B70AFA302000B6002230B70053
:100678003E30B80021002B082000B90021002C08CA
:100688002000BA0021002D082000BB008E3156261C
:100698008331200036082100AB00200037082100F4
:1006A800AC00200038082100AD002B082000E9002C
:1006B80021002C082000EA0021002D082000EB0072
:1006C8008D3113258331200069082100A500200001
:1006D8006A082100A60020006B082100A7002B084B
:1006E800A8002C08A9002D08AA0089311A218331F5
:1006F80021002508AB002608AC002708AD00003013
:100708002000B6008030B7004030B80021002B0828
:100718002000B90021002C082000BA0021002D0873
:100728002000BB008E315626833120003608210078
:10073800AB00200037082100AC0020003808210059
:10074800AD000030F2000030F3004030F4002B0818
:10075800F5002C08F6002D08F7008A31B322833102
:100768000318D82B00302100A5000030A600403027
:10077800A7002B08A8002C08A9002D08AA00893179
:100788001A21833121002508AB002608AC00270870
:10079800AD003708031DD22B0130D32B00302000C9
:1007A800ED006D082100B7000030F2008030F30042
:1007B8003F30F40021002B08F5002C08F6002D0826
:1007C800F7008A31B32283310318112C003020003E
:1007D800C6000030C7004030C80021002B08F200D6
:1007E8002C08F3002D08F4009631BC2683317208DA
:1007F8002000C9007308CA007408CB008F310A278B
:100808008331200046082100AB0020004708210062
:10081800AC00200048082100AD0021002B08200072
:10082800B60021002C082000B70021002D08200068
:10083800B80021002B082000B90021002C08200056
:10084800BA0021002D082000BB008E3156268331C6
:10085800200036082100B400200037082100B50028
:10086800200038082100B60034082000D3002100F9
:1008780035082000D400210036082000D50021309A
:10088800D6009030D7000330D8000030D9008B3123
:10089800C8238331200053082100AE0020005408EB
:1008A8002100AF00200055082100B00004302000CE
:1008B800D8000030D9001230D6009030D70021007F
:1008C80034082000D300210035082000D40021007E
:1008D80036082000D5008B31C82383312000530807
:1008E800A9005408AA005508AB0021002E082000D2
:1008F800A60021002F082000A700210030082000B2
:10090800A8008D31AD258331200026082100B100D3
:10091800200027082100B200200028082100B30089
:1009280031082000B600210032082000B70021005D
:1009380033082000B80021002B082000B90021004E
:100948002C082000BA0021002D082000BB008E31A1
:1009580056268331200036082100AB0020003708D6
:100968002100AC00200038082100AD003708031929
:1009780008002B08F2002C08F3002D08F40096312B
:10098800BC2672082100AB007308AC007408AD00E7
:100998000800E5302100BA003A08F200003097312B
:1009A8007F27843172087304031D522D2100651CB2
:1009B800522D65080239BA003A08E800650804397A
:1009C800BA003A08E90065080839BA003A08EA00A6
:1009D80065088039BA003A08EB00680803191B2D2E
:1009E800C430BA003A08F200013097317F278431C9
:1009F80021004408BA00BB013A08E6003B08E700BA
:100A0800C430BA003A08F200023097317F278431A7
:100A1800210044080F39BA00BB013A08BB00BA01EB
:100A28003A08E6043B08E704DD01DE011D2DE60176
:100A3800E70169080319232D22008E15252D2200B0
:100A48008E1121006B080319482D2D302000A600B7
:100A58009030A70021006508BA00BB013A082000C1
:100A6800A80021003B082000A900210067082000F9
:100A7800AB00210066082000AA007B30AC00903053
:100A8800AD0080313B20843121006508FE39BA0071
:100A98003A08F20000309631E026843121006808D7
:100AA800031908006A080319182E5E082000A1001F
:100AB80021005D082000A0008731DA27843120005A
:100AC8002008A9002108AA002208AB000030A600CF
:100AD8003430A7004330A8008D31AD258431200083
:100AE8002608B9002708BA002808BB001030B6004D
:100AF8004930B7004030B8008E3156268431200086
:100B080036082100BE00200037082100BF00200061
:100B180038082100C0003E08AB003F08AC00400880
:100B2800AD0083311123843121002B08C1002C082A
:100B3800C2002D08C30041082000B9002100420866
:100B48002000BA00210043082000BB000130E53E28
:100B580086008701403F2100BA00413FBB00BB36F9
:100B6800BA0C3A082000A00021003B082000A10090
:100B780088310120843120002008B6002108B70000
:100B88002208B8008E315626843120003608C90064
:100B98003708CA003808CB000130E53E86008701D7
:100BA800403F2100BC00413FBD00BD36BC0C3C08A5
:100BB8002000A00021003D082000A100883101206C
:100BC800843120002008C6002108C7002208C80078
:100BD8008F310A27843120004608D3004708D40003
:100BE8004808D5008C318C24843120005408210019
:100BF800B900200053082100B80097310A27843132
:100C080001302100DD070030DE3D5E08803ABA0081
:100C180081303A02031D122E69305D02031C080060
:100C28002100DD01DE0108006708B9006608B80088
:100C380097310A2708002000B100200031088600FB
:100C4800013087000108A8002808B2000130A80078
:100C58002808B107320897315A278631031C362EE7
:100C68002000212E00302000B0000030AF000030FE
:100C7800AE000030AD00AC012D303206031D472E0A
:100C8800AC01AC0A4B2E2B303206031D572E31080F
:100C98008600013087000108A8002808B20001304A
:100CA800A8002808B10730303206031D912E3108FC
:100CB8008600013087000108A8002808B20001302A
:100CC800A8002808B107250826040319702E10303B
:100CD80025062604031D892E783032060319782E3E
:100CE80058303206031D892E1030A5000030A600AA
:100CF80031088600013087000108A8002808B200E2
:100D08000130A8002808B107912E25082604031DE4
:100D1800912E0830A5000030A60025082604031DE2
:100D2800992E0A30A5000030A600320897314827CE
:100D38008631031CAA2E20003208973119278631E4
:100D4800C93E2000A8002808B200B42E20003208AE
:100D58009631EE268631031CF52E30302000B20283
:100D68002608803A803C031DBB2E25083202031852
:100D7800F52E20003208A800A901AA01AB01250818
:100D8800F2002608F300890D893B8909F400F50073
:100D98003008F9002F08F8002E08F7002D08F60093
:100DA8008931DB21863172082000A8077308A93D24
:100DB8007408AA3D7508AB3D2B08B0002A08AF009F
:100DC8002908AE002808AD003108860001308700E8
:100DD8000108A8002808B2000130A8002808B107B7
:100DE800992E200024080319012F3108FF3EA8007E
:100DF800240886008701280881002C080319142F6D
:100E08002D09A4002E09A5002F09A6003009A70066
:100E1800A40A0319A50A0319A60A0319A70A0800B0
:100E28003008A7002F08A6002E08A5002D08A4004A
:100E380008002000C2007E30AC009030AD00433086
:100E4800C0004008AE0042088831C1208731200028
:100E58002C08C1004108C70002304702031C582F64
:100E68004830C0004008B9001030BA000030BB005C
:100E78004408893148218731200039083A04031D84
:100E8800492F03304802031C582F6630A6009030C3
:100E9800A7006F30A8009030A9007B30AA009030DE
:100EA800AB0080313B200800033020004706031DBB
:100EB800A22F7730F2009030F30043088831982051
:100EC800873172087304031DA22F46302000C0002A
:100ED8004008B9001030BA000030BB00450889311D
:100EE80048218731200039083A0403198A2F6630CF
:100EF800A6009030A7006F30A8009030A9007B3082
:100F0800AA009030AB0080313B2008002000460842
:100F1800C0004808D83E8600870140088100663036
:100F2800A6009030A7006B30A8009030A9007B3055
:100F3800AA009030AB0080313B200800023020002E
:100F48004706031DCA2F7330F2009030F3004308A0
:100F580088319820873172087304031DCA2F6130C5
:100F68002000A6009030A7004808D83E86008701D8
:100F78000108C000C1014008A8004108A9007B3051
:100F8800AA009030AB0080313B200800663020007A
:100F9800A6009030A7006F30A8009030A9007B30E1
:100FA800AA009030AB0080313B2008002000A5014A
:100FB800A11FE52FA009A109A00A0319A10AA501EB
:100FC800A50A2008F2002108F300F4018E30A300DE
:100FD8002308F5002508A4002408F6008C312824ED
:100FE80072082000A0007308A1007408A20008007D
:080FF8001630210097000800EB
:1010020020002008F2002108F300F4018E30A30032
:101012002308F500F6018C31282472082000A00074
:101022007308A1007408A2000800103021006202B7
:10103200031830286308C83E860087010108230090
:101042009A000130F00070082100E30710306302BB
:101052000318E3010130F0007008E20708001112E2
:101062000800F3017B080319332821006008203EA1
:101072008600013087000108F2007208F300013097
:10108200F2007208E007103060020318E0019112CA
:101092000130FB02911673080800F3002100620878
:1010A20003194F28111A5928730823009A006C2833
:1010B20011127308F2006408C83E860087017208A4
:1010C20081000130F2007208E40710306402031854
:1010D200E4010130E2022100111608002000B700ED
:1010E2003830B6003608A4003508A6003408A5003A
:1010F200370886311F268831200033088600870191
:101102002408C03F2508C13F2608C23F2708C33F25
:10111200380886000130870001080319952801303C
:10112200B3000030B4000800B301B4010800F600B7
:10113200A2280130F4007408F6070130F2070030EB
:10114200F33D760886000130870072088400730838
:1011520085000008FF3A013E0107F4007408F5001B
:101162007508031DBB287608860001308700010838
:10117200031D9A287508F200F301F21BF30308001D
:101182002000B100B201B3012D08A8002C08A7006D
:1011920031088B31762388312000AF002F08B4004C
:1011A20034080319E8283408AF0032082E07B000CB
:1011B2003008860087012F0881000130B207003015
:1011C200B33D2D08A8002C08A7000030CA28330818
:1011D200AD003208AC0008002000200821040319E9
:1011E2001529A501A50AA11B00290130A035A10DD1
:1011F200890BF7280130A4002408A507F428210848
:101202002302031D062920082202031C0C292008A0
:10121200A2022108A33B0130A136A00C890B0D29A3
:101222000130A502031D00292308A1002208A00005
:1012320008002100270826042504031922298030EA
:10124200A70628082000C600210029082000C700A0
:1012520021002A082000C800210025082000C9001A
:10126200210026082000CA00210027082000CB0008
:101272008F310A27200046082100A50020004708D8
:101282002100A600200048082100A7000800200035
:10129200BD003E30BC003C08B3003B08B5003A0834
:1012A200B4003D0888316F208931200033083404AE
:1012B200031D69293F08803ABC0081303C02031DAE
:1012C200642900303E02031869292000BF1F6F29DC
:1012D200FF302000B900FF30BA0008003E08BC0011
:1012E2003908860087013C088100B901BA0108006B
:1012F2002000A600A401A501872901302000A20038
:101302002208A6070130A4070030A53D2608860062
:101312000130870001080319A4292108F3002008DD
:10132200F20026088600013087000108A200A3010E
:101332002208F4002308F5009731972789317208B3
:10134200730403197E2920002508A1002408A000A7
:1013520008002000A600A401A501B8290130200040
:10136200A2002208A6070130A4070030A53D2608E6
:1013720086000130870001080319D5292108F300EE
:101382002008F20026088600013087000108A2002A
:10139200A3012208F4002308F50097319727893129
:1013A20072087304031DAF2920002508A100240838
:1013B200A000080000302000A3000030A20000308E
:1013C200A1000030A000721CEF2976082000A007BF
:1013D2007708A13D7808A23D7908A33D0130F63592
:1013E200F70DF80DF90D890BF0290130F536F40CE3
:1013F200F30CF20C890BF729750874047304720458
:10140200031DE42920002308F5002208F400210826
:10141200F3002008F2000800F701F80172087304D3
:1014220003193C2AF901F90AF31B212A0130F2358A
:10143200F30D890B182A0130F6007608F907152AF0
:101442000130F735F80D890B222A73087502031D46
:101452002C2A72087402031C332A7208F4027308DD
:10146200F53B77140130F336F20C890B342A013044
:10147200F902031D212A7808F3007708F200080018
:10148200740873047204031D4D2A750886008701CF
:101492000030C03FC13F080074087F39F600F701F1
:1014A200F635F70D7508860087017608C03F770884
:1014B200C13F730D730D0139F600F70175088600FF
:1014C2008701760881044131770881047508860016
:1014D2008701823081074131FF30813D7F317408BD
:1014E20080393F38F400F31308002000E8018E3001
:1014F200E5006508E700E41F8B2AE109E209E30938
:10150200E409E10A0319E20A0319E30A0319E40AE6
:10151200E801E80AFF30640503199B2A0130E4362A
:10152200E30CE20CE10C890B902A0130E50065081E
:10153200E7078B2A6108F2006208F3006308F400EF
:101542006708E5006508F5006808E6006608F60029
:101552008C31282472082000E1007308E20074082C
:10156200E3000800F41FCA2A72092000A0007309D0
:10157200A1007409A200A00A0319A10A0319A20A70
:1015820000302007F2000030213DF3008030223D80
:10159200F400F71FE12A75092000A0007609A100D6
:1015A2007709A200A00A0319A10A0319A20A0030AE
:1015B2002007F5000030213DF6008030223DF70083
:1015C2008030F4068030F70677087402031D0800A5
:1015D20076087302031D08007508720208007B0872
:1015E20003190800883132208A31973119278A314C
:1015F2002000C9007A08303E860001308700490881
:1016020081007A08013E303E860001308700810168
:101612007A0803192B2B7A08FF3E303E86000130F0
:1016220087000D300106031D2B2B7A08303E860001
:10163200013087000A300106031D2B2B7A08FF3E7A
:10164200303E8600013087008101303087311D270E
:10165200FA01080001302000C9004908FA07F02AFF
:1016620022008C0104308E00323021008C002030A8
:101672008E0023008E0132308C0024008C018E01FA
:1016820025008C018E0100308B1B0130F2008B1380
:1016920055303C008F00AA308F000F103D0021080A
:1016A200E0391938A1003C002008E0391038A000C8
:1016B2002108E0391138A1002408E0391538A400C6
:1016C2003D002408E0391438A4002008E039183815
:1016D200A00055303C008F00AA308F000F14721CFE
:1016E200742B8B1708008B130800F9007908031D6F
:1016F200802B21005F082000A9002908F900790841
:10170200031D852B0030080020002808A1002708AF
:10171200A00079088931AA218B3120002008A90074
:101722002908F90779088600013087000108031D9E
:101732009E2B2100DF010030080020002808A100B4
:101742002708A0007908893179218B3120002008EF
:10175200A9002108AA0079082907AB002B0821005B
:10176200DF005F0886000130870001080319C52BDE
:101772005F08860001308700810101302000A90046
:1017820029082100DF07C62BDF01790808002000A5
:101792005908F3005808F2000330F4000030F50055
:1017A2009731C9278B3120005608720784005708E9
:1017B200733D8500003FDA00013FDB00023FDC00A1
:1017C200580859040319212CFF30D807FF30D93D9E
:1017D2005908F3005808F2000330F4000030F50015
:1017E2009731C9278B3120005608720784005708A9
:1017F200733D8500003FC600013FC700023FC8009D
:101802005A08B6005B08B7005C08B8005308B90074
:101812005408BA005508BB008E3156268B31200081
:101822003608C9003708CA003808CB008F310A27AA
:101832008B3120004608DA004708DB004808E02B1D
:101842005A08D3005B08D4005C08D500080075086C
:101852000319302C740873047204031D412C0030E8
:10186200F2000030F3000030F40008000130F7000D
:101872007708F5070130F436F30CF20C890B3C2C97
:10188200FE30740503195A2C372C0130F700770803
:10189200F5070130F207003003180130F30700307A
:1018A20003180130F4070130F436F30CF20C890B03
:1018B200552CFF3074050319672C462C0130F502B4
:1018C2000130F235F30DF40D890B622CF31B6D2CF4
:1018D2000230750203185F2C7518752CFF30F20563
:1018E2007F30F305FF30F4050310F50C7508F7009F
:1018F200F801F9011030F735F80DF90D890B7C2C40
:101902007708F2047808F3047908F40476080319D6
:101912000800F417080020005308D7005408D80024
:101922005508D9000310580D590DDA005A08E00085
:101932006008031DA52C0030D6000030D500003011
:10194200D4000030D30008005308D7005408D80050
:101952005508D9001730D936D80CD70C890BAC2CC6
:101962005708DA005A08DB00D417FF30D305FF30DE
:10197200D4050030D5055308DC005408DD005508B5
:10198200DE00DF018E30E002E01FE32C6008803AC7
:101992008F3E0318D52C0030D6000030D500003021
:1019A200D4000030D30008000130DF36DE0CDD0C3D
:1019B200DC0C890BD62C0130D7005708E00703193D
:1019C200FC2CD52C18306002031CF92C0030D600F8
:1019D2000030D5000030D4000030D30008000130C0
:1019E200DC35DD0DDE0DDF0D890BF12C0130E0025F
:1019F2006008031DF02C5B0803190A2DDC09DD09C0
:101A0200DE09DF09DC0A0319DD0A0319DE0A0319FC
:101A1200DF0A5F08D6005E08D5005D08D4005C08C6
:101A2200D300080020006908F2006A08F3006B087E
:101A3200F400A330EC006C08F5008A3141228D31AC
:101A42002100A41F462D20006908F2006A08F30055
:101A52006B08F4000030F5000030F6000030F700AB
:101A62008A31B3228D3103183E2D00302000E90067
:101A72008030EA00BF30EB00080000302000E900AF
:101A82000030EA000030EB000800003021002402A0
:101A92001530031923020318080020006908D30037
:101AA2006A08D4006B08D5008C318C248D3120005B
:101AB2005608E4005508E3005408E2005308E10028
:101AC2008A3176228D31200061082100A000200099
:101AD20062082100A100200063082100A20020006A
:101AE2006908F2006A08F3006B08F400210020087C
:101AF200F5002108F6002208F7008A31B3228D3161
:101B02000318A02D00302000C6008030C700BF306F
:101B1200C800210020082000C9002100210820005F
:101B2200CA00210022082000CB008F310A272000A2
:101B32004608E9004708EA004808EB0008002100CF
:101B420020082000E900210021082000EA002100ED
:101B520022082000EB00080020002908AC002A0817
:101B6200AD002B08AE0003102D0D2E0DAF002F0877
:101B7200B4003408031DC42D0030A6000030A700B5
:101B82000030A80008002608AC002708AD0028088D
:101B9200AE0003102D0D2E0DAF002F08B500350835
:101BA200031DDA2D0030A6000030A7000030A80087
:101BB20008000030B1000030B2000030B3008930BC
:101BC2003507AC002C08B4022908AC002A08AD0085
:101BD2002B08AE001030AE36AD0CAC0C890BEC2DE0
:101BE2002C08AF002F08B5002608AC002708AD006E
:101BF2002808AE001030AE36AD0CAC0C890BFC2DB3
:101C02002C08AF002F08B5068030AC002C08B505B3
:101C1200AA17FF30A905FF30AA050030AB05A717A8
:101C2200FF30A605FF30A7050030A8051830AC002C
:101C32002C08B0000130B135B20DB30D890B1C2E4A
:101C420028082B02031D2B2E27082A02031D2B2EE8
:101C520026082902031C342E2608A9022708AA3BBB
:101C62002808AB3B31140130A935AA0DAB0D890B05
:101C7200352E0130B002031D1B2E3108F20032084E
:101C8200F3003308F4003408AC002C08F5003508E2
:101C9200AD002D08F6008C31282472082000A60021
:101CA2007308A7007408A800080020003608BC00CA
:101CB2003708BD003808BE0003103D0D3E0DBF00C1
:101CC2003F08C0004008031D6D2E0030B6000030F2
:101CD200B7000030B80008003908BC003A08BD005F
:101CE2003B08BE0003103D0D3E0DBF003F08C5007E
:101CF2004508031D832E0030B6000030B7000030C7
:101D0200B800080045087B3EBC003C08C007360806
:101D1200BC003708BD003808BE001030BE36BD0C0E
:101D2200BC0C890B8F2E3C08BF003F08C500390848
:101D3200BC003A08BD003B08BE001030BE36BD0CE8
:101D4200BC0C890B9F2E3C08BF003F08C5068030A3
:101D5200BC003C08C505B717BA17FF30B905FF30FC
:101D6200BA050030BB050030C1000030C2000030AF
:101D7200C3000730BC003C08C400361CC62E39081C
:101D8200C1073A08C23D3B08C33D0130B836B70C23
:101D9200B60C890BC72E0130B935BA0DBB0D890BB4
:101DA200CD2E0130C402031DBE2E0930BC003C08FA
:101DB200C400361CE22E3908C1073A08C23D3B086E
:101DC200C33D0130B836B70CB60C890BE32E013097
:101DD200C336C20CC10C890BE92E0130C402031DAB
:101DE200DA2E4108F2004208F3004308F4004008EA
:101DF200BC003C08F5004508BD003D08F6008C31EA
:101E0200282472082000B6007308B7007408B800CE
:101E1200080020004608CC004708CD004808CE0044
:101E220003104D0D4E0DCF004F08D2004908CC00D3
:101E32004A08CD004B08CE0003104D0D4E0DCF00C9
:101E42004F08D10052080319322F510852020318C9
:101E5200392F5203FF3A5107CC0019304C02031CB0
:101E6200392F4908C6004A08C7004B08C8000800B5
:101E7200510803190800520851020318482F510350
:101E8200FF3A5207CC0019304C0203180800063002
:101E9200CC004C08D000C81BD017CB1B5017C7175B
:101EA200FF30C605FF30C7050030C805CA17FF302E
:101EB200C905FF30CA050030CB055108520203188C
:101EC200842F0130C935CA0DCB0D890B632F013028
:101ED200D1025108520603197F2F0130D002500857
:101EE200073903197F2F622F0130C836C70CC60C81
:101EF200890B762F0130CC004C08D20752085106CC
:101F02000319A92F752F520851020318A92F013066
:101F1200C635C70DC80D890B892F0130D202510871
:101F220052060319A52F0130D002500807390319B0
:101F3200A52F882F0130CB36CA0CC90C890B9C2FD8
:101F42000130CC004C08D10752085106031D9B2FCB
:101F5200D01FBB2FFF30C606FF30C706FF30C806B2
:101F62000130C607003003180130C70700300318DC
:101F72000130C807501FCD2FFF30C906FF30CA06F7
:101F8200FF30CB060130C907003003180130CA0701
:101F9200003003180130CB07D0014608C9074708B3
:101FA200CA3D4808CB3DCB1FE82FFF30C906FF30A2
:101FB200CA06FF30CB060130C907003003180130D2
:101FC200CA07003003180130CB07D001D00A4908F4
:101FD200F2004A08F3004B08F4005208CC004C0807
:101FE200F5005008CD004D08F6008C312824720807
:101FF2002000C6007308C7007408C8000800013436
:1020020000340A34003464340034E83403341034C5
:1020120027340134003410340034003401340034E5
:102022001034F4344A34483495349534C734C134C6
:10203200DC344534DC346D34C334B33433344034AB
:102042003434013448349D34B03445340034DA3405
:102052004234003480343F344E346F347434693443
:10206200663479343A345234653467345B34253417
:10207200783468345D342C344334753472347234B9
:1020820065346E3474345B34253464345D34003426
:102092003034313432343334343435343634373402
:1020A20038343934613462346334643465346634C8
:1020B200003428346E3475346C346C342934003472
:1020C2002534643425347334003425347334253490
:1020D2007334003441344F344B3400344E344F3473
:1020E2004B3400344734453454340034533445348B
:0E20F200543400340D340A3400342C340034DD
:102D6200F400740888314E200800640080010131AB
:102D7200890BB72E00347408730472040319080017
:102D82008030F4060800C030240094002230950000
:102D9200323092000800F20024009513720891006C
:102DA200141CD12E110808000230320099009B0138
:102DB2009D0106309F009E011C180800DD2EF400C4
:102DC20003307402031808007208F3007408D83E36
:102DD20086008701730881000800F300F2013A308F
:102DE20073020318FA2E30307302031CFA2EF2011A
:102DF200F20A720C0800F300F2015B30730203184E
:102E0200082F41307302031C082FF201F20A720CE0
:102E1200080022000E112100390830389631CC26E4
:102E22009731210038089631CC2622000E15080071
:102E3200F3007B3073020318262F61307302031CE8
:102E4200262FDF30F2007208F305730808008B3179
:102E5200312397319631D52697318731FC27973127
:102E62009631C42697319731B0270800F500F40156
:102E7200751C3F2F7208F3007308F4070310F20D5C
:102E82000310F50C7508031D392F74080800F500AE
:102E9200F401F40A7B3075020318532F6130750276
:102EA2000318582F75089631FC26031CF401740C84
:102EB2000800F300F201F20A2030730603196A2FA8
:102EC2000E3073020318692F0930730203186A2F38
:102ED200F201720C08009731282797318B170B17D4
:102EE20000302100C5000030C6000030C7008A3122
:102EF200F02297318431CD249731782FF5000330B9
:102F020075020318922F7508D83E860087010108C2
:102F1200F40072088600870174088100F201F3014F
:102F22000800FF30F200FF30F3000800720884004E
:102F32007308850000087406031908007308F70077
:102F42007208F600F20A0319F30A76088400770879
:102F520085001200031D972FF201F30108002100E2
:102F6200911211120A3023009F0090309D002430EC
:102F72009E00CF309B009C012100E401E301103050
:102F8200F2007208E200E101E001FB019116080083
:102F9200F601F701721CD12F7408F6077508F73D88
:102FA2000130F435F50D890BD22F0130F336F20CD6
:102FB200890BD72F72087304031DCB2F7708F300F8
:102FC2007608F200080023009D1CE92F1D121D1631
:102FD2001908F00021006108203E860001308700B8
:102FE200700881000130F0007008E10710306102C2
:0E2FF2000318E1010130F0007008FB07080031
:020000040001F9
:08000E008CFFF2FFFFFFFFFF72
:00000001FF
